{
  "_format": "hh-sol-artifact-1",
  "contractName": "Millow",
  "sourceName": "contracts/Millow.sol",
  "abi": [
    {
      "anonymous": false,
      "inputs": [
        {
          "indexed": false,
          "internalType": "uint256",
          "name": "plotId",
          "type": "uint256"
        },
        {
          "indexed": false,
          "internalType": "string",
          "name": "name",
          "type": "string"
        },
        {
          "indexed": false,
          "internalType": "string",
          "name": "location",
          "type": "string"
        },
        {
          "indexed": false,
          "internalType": "uint256",
          "name": "size",
          "type": "uint256"
        },
        {
          "indexed": false,
          "internalType": "uint256",
          "name": "price",
          "type": "uint256"
        },
        {
          "indexed": false,
          "internalType": "string",
          "name": "img",
          "type": "string"
        },
        {
          "indexed": true,
          "internalType": "address",
          "name": "owner",
          "type": "address"
        }
      ],
      "name": "PlotAdded",
      "type": "event"
    },
    {
      "anonymous": false,
      "inputs": [
        {
          "indexed": false,
          "internalType": "uint256",
          "name": "plotId",
          "type": "uint256"
        },
        {
          "indexed": true,
          "internalType": "address",
          "name": "buyer",
          "type": "address"
        },
        {
          "indexed": false,
          "internalType": "uint256",
          "name": "price",
          "type": "uint256"
        },
        {
          "indexed": false,
          "internalType": "string",
          "name": "contactNumber",
          "type": "string"
        }
      ],
      "name": "PlotBought",
      "type": "event"
    },
    {
      "inputs": [
        {
          "internalType": "string",
          "name": "_name",
          "type": "string"
        },
        {
          "internalType": "string",
          "name": "_location",
          "type": "string"
        },
        {
          "internalType": "uint256",
          "name": "_size",
          "type": "uint256"
        },
        {
          "internalType": "uint256",
          "name": "_price",
          "type": "uint256"
        },
        {
          "internalType": "string",
          "name": "_img",
          "type": "string"
        }
      ],
      "name": "addPlot",
      "outputs": [],
      "stateMutability": "nonpayable",
      "type": "function"
    },
    {
      "inputs": [
        {
          "internalType": "uint256",
          "name": "_plotId",
          "type": "uint256"
        },
        {
          "internalType": "string",
          "name": "_contactNumber",
          "type": "string"
        },
        {
          "internalType": "address",
          "name": "_owner",
          "type": "address"
        },
        {
          "internalType": "uint256",
          "name": "_price",
          "type": "uint256"
        }
      ],
      "name": "buyPlot",
      "outputs": [],
      "stateMutability": "payable",
      "type": "function"
    },
    {
      "inputs": [
        {
          "internalType": "uint256",
          "name": "",
          "type": "uint256"
        }
      ],
      "name": "plots",
      "outputs": [
        {
          "internalType": "uint256",
          "name": "id",
          "type": "uint256"
        },
        {
          "internalType": "string",
          "name": "name",
          "type": "string"
        },
        {
          "internalType": "string",
          "name": "location",
          "type": "string"
        },
        {
          "internalType": "uint256",
          "name": "size",
          "type": "uint256"
        },
        {
          "internalType": "uint256",
          "name": "price",
          "type": "uint256"
        },
        {
          "internalType": "string",
          "name": "img",
          "type": "string"
        },
        {
          "internalType": "address",
          "name": "owner",
          "type": "address"
        },
        {
          "internalType": "bool",
          "name": "sold",
          "type": "bool"
        },
        {
          "internalType": "string",
          "name": "contactNumber",
          "type": "string"
        }
      ],
      "stateMutability": "view",
      "type": "function"
    },
    {
      "inputs": [],
      "name": "viewAddedPlots",
      "outputs": [
        {
          "components": [
            {
              "internalType": "uint256",
              "name": "id",
              "type": "uint256"
            },
            {
              "internalType": "string",
              "name": "name",
              "type": "string"
            },
            {
              "internalType": "string",
              "name": "location",
              "type": "string"
            },
            {
              "internalType": "uint256",
              "name": "size",
              "type": "uint256"
            },
            {
              "internalType": "uint256",
              "name": "price",
              "type": "uint256"
            },
            {
              "internalType": "string",
              "name": "img",
              "type": "string"
            },
            {
              "internalType": "address",
              "name": "owner",
              "type": "address"
            },
            {
              "internalType": "bool",
              "name": "sold",
              "type": "bool"
            },
            {
              "internalType": "string",
              "name": "contactNumber",
              "type": "string"
            }
          ],
          "internalType": "struct Millow.Plot[]",
          "name": "",
          "type": "tuple[]"
        }
      ],
      "stateMutability": "view",
      "type": "function"
    },
    {
      "inputs": [],
      "name": "viewBoughtPlots",
      "outputs": [
        {
          "components": [
            {
              "internalType": "uint256",
              "name": "id",
              "type": "uint256"
            },
            {
              "internalType": "string",
              "name": "name",
              "type": "string"
            },
            {
              "internalType": "string",
              "name": "location",
              "type": "string"
            },
            {
              "internalType": "uint256",
              "name": "size",
              "type": "uint256"
            },
            {
              "internalType": "uint256",
              "name": "price",
              "type": "uint256"
            },
            {
              "internalType": "string",
              "name": "img",
              "type": "string"
            },
            {
              "internalType": "address",
              "name": "owner",
              "type": "address"
            },
            {
              "internalType": "bool",
              "name": "sold",
              "type": "bool"
            },
            {
              "internalType": "string",
              "name": "contactNumber",
              "type": "string"
            }
          ],
          "internalType": "struct Millow.Plot[]",
          "name": "",
          "type": "tuple[]"
        }
      ],
      "stateMutability": "view",
      "type": "function"
    },
    {
      "inputs": [
        {
          "internalType": "uint256",
          "name": "_plotId",
          "type": "uint256"
        }
      ],
      "name": "viewPlotDetails",
      "outputs": [
        {
          "components": [
            {
              "internalType": "uint256",
              "name": "id",
              "type": "uint256"
            },
            {
              "internalType": "string",
              "name": "name",
              "type": "string"
            },
            {
              "internalType": "string",
              "name": "location",
              "type": "string"
            },
            {
              "internalType": "uint256",
              "name": "size",
              "type": "uint256"
            },
            {
              "internalType": "uint256",
              "name": "price",
              "type": "uint256"
            },
            {
              "internalType": "string",
              "name": "img",
              "type": "string"
            },
            {
              "internalType": "address",
              "name": "owner",
              "type": "address"
            },
            {
              "internalType": "bool",
              "name": "sold",
              "type": "bool"
            },
            {
              "internalType": "string",
              "name": "contactNumber",
              "type": "string"
            }
          ],
          "internalType": "struct Millow.Plot",
          "name": "",
          "type": "tuple"
        }
      ],
      "stateMutability": "view",
      "type": "function"
    },
    {
      "inputs": [
        {
          "internalType": "string",
          "name": "_location",
          "type": "string"
        }
      ],
      "name": "viewPlotDetailsByLocation",
      "outputs": [
        {
          "components": [
            {
              "internalType": "uint256",
              "name": "id",
              "type": "uint256"
            },
            {
              "internalType": "string",
              "name": "name",
              "type": "string"
            },
            {
              "internalType": "string",
              "name": "location",
              "type": "string"
            },
            {
              "internalType": "uint256",
              "name": "size",
              "type": "uint256"
            },
            {
              "internalType": "uint256",
              "name": "price",
              "type": "uint256"
            },
            {
              "internalType": "string",
              "name": "img",
              "type": "string"
            },
            {
              "internalType": "address",
              "name": "owner",
              "type": "address"
            },
            {
              "internalType": "bool",
              "name": "sold",
              "type": "bool"
            },
            {
              "internalType": "string",
              "name": "contactNumber",
              "type": "string"
            }
          ],
          "internalType": "struct Millow.Plot",
          "name": "",
          "type": "tuple"
        }
      ],
      "stateMutability": "view",
      "type": "function"
    },
    {
      "inputs": [],
      "name": "viewPlots",
      "outputs": [
        {
          "components": [
            {
              "internalType": "uint256",
              "name": "id",
              "type": "uint256"
            },
            {
              "internalType": "string",
              "name": "name",
              "type": "string"
            },
            {
              "internalType": "string",
              "name": "location",
              "type": "string"
            },
            {
              "internalType": "uint256",
              "name": "size",
              "type": "uint256"
            },
            {
              "internalType": "uint256",
              "name": "price",
              "type": "uint256"
            },
            {
              "internalType": "string",
              "name": "img",
              "type": "string"
            },
            {
              "internalType": "address",
              "name": "owner",
              "type": "address"
            },
            {
              "internalType": "bool",
              "name": "sold",
              "type": "bool"
            },
            {
              "internalType": "string",
              "name": "contactNumber",
              "type": "string"
            }
          ],
          "internalType": "struct Millow.Plot[]",
          "name": "",
          "type": "tuple[]"
        }
      ],
      "stateMutability": "view",
      "type": "function"
    }
  ],
  "bytecode": "0x6080604052348015600f57600080fd5b50612ef08061001f6000396000f3fe60806040526004361061007b5760003560e01c80636c054b741161004e5780636c054b74146101355780637cebc4b4146101725780639278f9891461019d5780639bbc6db5146101da5761007b565b80633ef601a3146100805780634ce1a09a146100ab57806361bf49ee146100c757806369c51f221461010c575b600080fd5b34801561008c57600080fd5b50610095610205565b6040516100a291906120ce565b60405180910390f35b6100c560048036038101906100c09190612291565b610642565b005b3480156100d357600080fd5b506100ee60048036038101906100e99190612314565b61091b565b604051610103999897969594939291906123b8565b60405180910390f35b34801561011857600080fd5b50610133600480360381019061012e9190612461565b610bb6565b005b34801561014157600080fd5b5061015c60048036038101906101579190612314565b610f28565b604051610169919061260a565b60405180910390f35b34801561017e57600080fd5b5061018761127a565b60405161019491906120ce565b60405180910390f35b3480156101a957600080fd5b506101c460048036038101906101bf919061262c565b611620565b6040516101d1919061260a565b60405180910390f35b3480156101e657600080fd5b506101ef61198c565b6040516101fc91906120ce565b60405180910390f35b60606000600460003373ffffffffffffffffffffffffffffffffffffffff1673ffffffffffffffffffffffffffffffffffffffff16815260200190815260200160002080548060200260200160405190810160405280929190818152602001828054801561029257602002820191906000526020600020905b81548152602001906001019080831161027e575b505050505090506000815167ffffffffffffffff8111156102b6576102b561213a565b5b6040519080825280602002602001820160405280156102ef57816020015b6102dc611dc9565b8152602001906001900390816102d45790505b50905060005b8251811015610639576001600084838151811061031557610314612675565b5b602002602001015181526020019081526020016000206040518061012001604052908160008201548152602001600182018054610351906126d3565b80601f016020809104026020016040519081016040528092919081815260200182805461037d906126d3565b80156103ca5780601f1061039f576101008083540402835291602001916103ca565b820191906000526020600020905b8154815290600101906020018083116103ad57829003601f168201915b505050505081526020016002820180546103e3906126d3565b80601f016020809104026020016040519081016040528092919081815260200182805461040f906126d3565b801561045c5780601f106104315761010080835404028352916020019161045c565b820191906000526020600020905b81548152906001019060200180831161043f57829003601f168201915b505050505081526020016003820154815260200160048201548152602001600582018054610489906126d3565b80601f01602080910402602001604051908101604052809291908181526020018280546104b5906126d3565b80156105025780601f106104d757610100808354040283529160200191610502565b820191906000526020600020905b8154815290600101906020018083116104e557829003601f168201915b505050505081526020016006820160009054906101000a900473ffffffffffffffffffffffffffffffffffffffff1673ffffffffffffffffffffffffffffffffffffffff1673ffffffffffffffffffffffffffffffffffffffff1681526020016006820160149054906101000a900460ff1615151515815260200160078201805461058c906126d3565b80601f01602080910402602001604051908101604052809291908181526020018280546105b8906126d3565b80156106055780601f106105da57610100808354040283529160200191610605565b820191906000526020600020905b8154815290600101906020018083116105e857829003601f168201915b50505050508152505082828151811061062157610620612675565b5b602002602001018190525080806001019150506102f5565b50809250505090565b600060016000868152602001908152602001600020905060008160000154036106a0576040517f08c379a000000000000000000000000000000000000000000000000000000000815260040161069790612750565b60405180910390fd5b8060060160149054906101000a900460ff16156106f2576040517f08c379a00000000000000000000000000000000000000000000000000000000081526004016106e9906127bc565b60405180910390fd5b813414610734576040517f08c379a000000000000000000000000000000000000000000000000000000000815260040161072b9061284e565b60405180910390fd5b600073ffffffffffffffffffffffffffffffffffffffff168373ffffffffffffffffffffffffffffffffffffffff16036107a3576040517f08c379a000000000000000000000000000000000000000000000000000000000815260040161079a906128ba565b60405180910390fd5b838160070190816107b49190612a86565b508273ffffffffffffffffffffffffffffffffffffffff166108fc349081150290604051600060405180830381858888f193505050501580156107fb573d6000803e3d6000fd5b50338160060160006101000a81548173ffffffffffffffffffffffffffffffffffffffff021916908373ffffffffffffffffffffffffffffffffffffffff16021790555060018160060160146101000a81548160ff021916908315150217905550600460003373ffffffffffffffffffffffffffffffffffffffff1673ffffffffffffffffffffffffffffffffffffffff1681526020019081526020016000208590806001815401808255809150506001900390600052602060002001600090919091909150553373ffffffffffffffffffffffffffffffffffffffff167fa368e4e4df989fde884f40c4758576b2cf8e86c5c3d49d189f86c8077de60a2186848760405161090c93929190612b58565b60405180910390a25050505050565b6001602052806000526040600020600091509050806000015490806001018054610944906126d3565b80601f0160208091040260200160405190810160405280929190818152602001828054610970906126d3565b80156109bd5780601f10610992576101008083540402835291602001916109bd565b820191906000526020600020905b8154815290600101906020018083116109a057829003601f168201915b5050505050908060020180546109d2906126d3565b80601f01602080910402602001604051908101604052809291908181526020018280546109fe906126d3565b8015610a4b5780601f10610a2057610100808354040283529160200191610a4b565b820191906000526020600020905b815481529060010190602001808311610a2e57829003601f168201915b505050505090806003015490806004015490806005018054610a6c906126d3565b80601f0160208091040260200160405190810160405280929190818152602001828054610a98906126d3565b8015610ae55780601f10610aba57610100808354040283529160200191610ae5565b820191906000526020600020905b815481529060010190602001808311610ac857829003601f168201915b5050505050908060060160009054906101000a900473ffffffffffffffffffffffffffffffffffffffff16908060060160149054906101000a900460ff1690806007018054610b33906126d3565b80601f0160208091040260200160405190810160405280929190818152602001828054610b5f906126d3565b8015610bac5780601f10610b8157610100808354040283529160200191610bac565b820191906000526020600020905b815481529060010190602001808311610b8f57829003601f168201915b5050505050905089565b6000845111610bfa576040517f08c379a0000000000000000000000000000000000000000000000000000000008152600401610bf190612be2565b60405180910390fd5b60008311610c3d576040517f08c379a0000000000000000000000000000000000000000000000000000000008152600401610c3490612c4e565b60405180910390fd5b60008211610c80576040517f08c379a0000000000000000000000000000000000000000000000000000000008152600401610c7790612cba565b60405180910390fd5b6000815111610cc4576040517f08c379a0000000000000000000000000000000000000000000000000000000008152600401610cbb90612d26565b60405180910390fd5b600080815480929190610cd690612d75565b919050555060405180610120016040528060005481526020018681526020018581526020018481526020018381526020018281526020013373ffffffffffffffffffffffffffffffffffffffff168152602001600015158152602001604051806020016040528060008152508152506001600080548152602001908152602001600020600082015181600001556020820151816001019081610d789190612a86565b506040820151816002019081610d8e9190612a86565b50606082015181600301556080820151816004015560a0820151816005019081610db89190612a86565b5060c08201518160060160006101000a81548173ffffffffffffffffffffffffffffffffffffffff021916908373ffffffffffffffffffffffffffffffffffffffff16021790555060e08201518160060160146101000a81548160ff021916908315150217905550610100820151816007019081610e369190612a86565b50905050600054600285604051610e4d9190612df9565b908152602001604051809103902081905550600360003373ffffffffffffffffffffffffffffffffffffffff1673ffffffffffffffffffffffffffffffffffffffff16815260200190815260200160002060005490806001815401808255809150506001900390600052602060002001600090919091909150553373ffffffffffffffffffffffffffffffffffffffff167f59192c02dea7b0d74cc049937a13c15893e20d229986ef7378583e241b1036626000548787878787604051610f1996959493929190612e10565b60405180910390a25050505050565b610f30611dc9565b6000600160008481526020019081526020016000206040518061012001604052908160008201548152602001600182018054610f6b906126d3565b80601f0160208091040260200160405190810160405280929190818152602001828054610f97906126d3565b8015610fe45780601f10610fb957610100808354040283529160200191610fe4565b820191906000526020600020905b815481529060010190602001808311610fc757829003601f168201915b50505050508152602001600282018054610ffd906126d3565b80601f0160208091040260200160405190810160405280929190818152602001828054611029906126d3565b80156110765780601f1061104b57610100808354040283529160200191611076565b820191906000526020600020905b81548152906001019060200180831161105957829003601f168201915b5050505050815260200160038201548152602001600482015481526020016005820180546110a3906126d3565b80601f01602080910402602001604051908101604052809291908181526020018280546110cf906126d3565b801561111c5780601f106110f15761010080835404028352916020019161111c565b820191906000526020600020905b8154815290600101906020018083116110ff57829003601f168201915b505050505081526020016006820160009054906101000a900473ffffffffffffffffffffffffffffffffffffffff1673ffffffffffffffffffffffffffffffffffffffff1673ffffffffffffffffffffffffffffffffffffffff1681526020016006820160149054906101000a900460ff161515151581526020016007820180546111a6906126d3565b80601f01602080910402602001604051908101604052809291908181526020018280546111d2906126d3565b801561121f5780601f106111f45761010080835404028352916020019161121f565b820191906000526020600020905b81548152906001019060200180831161120257829003601f168201915b50505050508152505090506000816000015103611271576040517f08c379a000000000000000000000000000000000000000000000000000000000815260040161126890612750565b60405180910390fd5b80915050919050565b60606000805467ffffffffffffffff8111156112995761129861213a565b5b6040519080825280602002602001820160405280156112d257816020015b6112bf611dc9565b8152602001906001900390816112b75790505b5090506000600190505b60005481116116185760016000828152602001908152602001600020604051806101200160405290816000820154815260200160018201805461131e906126d3565b80601f016020809104026020016040519081016040528092919081815260200182805461134a906126d3565b80156113975780601f1061136c57610100808354040283529160200191611397565b820191906000526020600020905b81548152906001019060200180831161137a57829003601f168201915b505050505081526020016002820180546113b0906126d3565b80601f01602080910402602001604051908101604052809291908181526020018280546113dc906126d3565b80156114295780601f106113fe57610100808354040283529160200191611429565b820191906000526020600020905b81548152906001019060200180831161140c57829003601f168201915b505050505081526020016003820154815260200160048201548152602001600582018054611456906126d3565b80601f0160208091040260200160405190810160405280929190818152602001828054611482906126d3565b80156114cf5780601f106114a4576101008083540402835291602001916114cf565b820191906000526020600020905b8154815290600101906020018083116114b257829003601f168201915b505050505081526020016006820160009054906101000a900473ffffffffffffffffffffffffffffffffffffffff1673ffffffffffffffffffffffffffffffffffffffff1673ffffffffffffffffffffffffffffffffffffffff1681526020016006820160149054906101000a900460ff16151515158152602001600782018054611559906126d3565b80601f0160208091040260200160405190810160405280929190818152602001828054611585906126d3565b80156115d25780601f106115a7576101008083540402835291602001916115d2565b820191906000526020600020905b8154815290600101906020018083116115b557829003601f168201915b505050505081525050826001836115e99190612e86565b815181106115fa576115f9612675565b5b6020026020010181905250808061161090612d75565b9150506112dc565b508091505090565b611628611dc9565b600060028360405161163a9190612df9565b90815260200160405180910390205490506000810361168e576040517f08c379a000000000000000000000000000000000000000000000000000000000815260040161168590612750565b60405180910390fd5b6001600082815260200190815260200160002060405180610120016040529081600082015481526020016001820180546116c7906126d3565b80601f01602080910402602001604051908101604052809291908181526020018280546116f3906126d3565b80156117405780601f1061171557610100808354040283529160200191611740565b820191906000526020600020905b81548152906001019060200180831161172357829003601f168201915b50505050508152602001600282018054611759906126d3565b80601f0160208091040260200160405190810160405280929190818152602001828054611785906126d3565b80156117d25780601f106117a7576101008083540402835291602001916117d2565b820191906000526020600020905b8154815290600101906020018083116117b557829003601f168201915b5050505050815260200160038201548152602001600482015481526020016005820180546117ff906126d3565b80601f016020809104026020016040519081016040528092919081815260200182805461182b906126d3565b80156118785780601f1061184d57610100808354040283529160200191611878565b820191906000526020600020905b81548152906001019060200180831161185b57829003601f168201915b505050505081526020016006820160009054906101000a900473ffffffffffffffffffffffffffffffffffffffff1673ffffffffffffffffffffffffffffffffffffffff1673ffffffffffffffffffffffffffffffffffffffff1681526020016006820160149054906101000a900460ff16151515158152602001600782018054611902906126d3565b80601f016020809104026020016040519081016040528092919081815260200182805461192e906126d3565b801561197b5780601f106119505761010080835404028352916020019161197b565b820191906000526020600020905b81548152906001019060200180831161195e57829003601f168201915b505050505081525050915050919050565b60606000600360003373ffffffffffffffffffffffffffffffffffffffff1673ffffffffffffffffffffffffffffffffffffffff168152602001908152602001600020805480602002602001604051908101604052809291908181526020018280548015611a1957602002820191906000526020600020905b815481526020019060010190808311611a05575b505050505090506000815167ffffffffffffffff811115611a3d57611a3c61213a565b5b604051908082528060200260200182016040528015611a7657816020015b611a63611dc9565b815260200190600190039081611a5b5790505b50905060005b8251811015611dc05760016000848381518110611a9c57611a9b612675565b5b602002602001015181526020019081526020016000206040518061012001604052908160008201548152602001600182018054611ad8906126d3565b80601f0160208091040260200160405190810160405280929190818152602001828054611b04906126d3565b8015611b515780601f10611b2657610100808354040283529160200191611b51565b820191906000526020600020905b815481529060010190602001808311611b3457829003601f168201915b50505050508152602001600282018054611b6a906126d3565b80601f0160208091040260200160405190810160405280929190818152602001828054611b96906126d3565b8015611be35780601f10611bb857610100808354040283529160200191611be3565b820191906000526020600020905b815481529060010190602001808311611bc657829003601f168201915b505050505081526020016003820154815260200160048201548152602001600582018054611c10906126d3565b80601f0160208091040260200160405190810160405280929190818152602001828054611c3c906126d3565b8015611c895780601f10611c5e57610100808354040283529160200191611c89565b820191906000526020600020905b815481529060010190602001808311611c6c57829003601f168201915b505050505081526020016006820160009054906101000a900473ffffffffffffffffffffffffffffffffffffffff1673ffffffffffffffffffffffffffffffffffffffff1673ffffffffffffffffffffffffffffffffffffffff1681526020016006820160149054906101000a900460ff16151515158152602001600782018054611d13906126d3565b80601f0160208091040260200160405190810160405280929190818152602001828054611d3f906126d3565b8015611d8c5780601f10611d6157610100808354040283529160200191611d8c565b820191906000526020600020905b815481529060010190602001808311611d6f57829003601f168201915b505050505081525050828281518110611da857611da7612675565b5b60200260200101819052508080600101915050611a7c565b50809250505090565b604051806101200160405280600081526020016060815260200160608152602001600081526020016000815260200160608152602001600073ffffffffffffffffffffffffffffffffffffffff168152602001600015158152602001606081525090565b600081519050919050565b600082825260208201905092915050565b6000819050602082019050919050565b6000819050919050565b611e6c81611e59565b82525050565b600081519050919050565b600082825260208201905092915050565b60005b83811015611eac578082015181840152602081019050611e91565b60008484015250505050565b6000601f19601f8301169050919050565b6000611ed482611e72565b611ede8185611e7d565b9350611eee818560208601611e8e565b611ef781611eb8565b840191505092915050565b600073ffffffffffffffffffffffffffffffffffffffff82169050919050565b6000611f2d82611f02565b9050919050565b611f3d81611f22565b82525050565b60008115159050919050565b611f5881611f43565b82525050565b600061012083016000830151611f776000860182611e63565b5060208301518482036020860152611f8f8282611ec9565b91505060408301518482036040860152611fa98282611ec9565b9150506060830151611fbe6060860182611e63565b506080830151611fd16080860182611e63565b5060a083015184820360a0860152611fe98282611ec9565b91505060c0830151611ffe60c0860182611f34565b5060e083015161201160e0860182611f4f565b5061010083015184820361010086015261202b8282611ec9565b9150508091505092915050565b60006120448383611f5e565b905092915050565b6000602082019050919050565b600061206482611e2d565b61206e8185611e38565b93508360208202850161208085611e49565b8060005b858110156120bc578484038952815161209d8582612038565b94506120a88361204c565b925060208a01995050600181019050612084565b50829750879550505050505092915050565b600060208201905081810360008301526120e88184612059565b905092915050565b6000604051905090565b600080fd5b600080fd5b61210d81611e59565b811461211857600080fd5b50565b60008135905061212a81612104565b92915050565b600080fd5b600080fd5b7f4e487b7100000000000000000000000000000000000000000000000000000000600052604160045260246000fd5b61217282611eb8565b810181811067ffffffffffffffff821117156121915761219061213a565b5b80604052505050565b60006121a46120f0565b90506121b08282612169565b919050565b600067ffffffffffffffff8211156121d0576121cf61213a565b5b6121d982611eb8565b9050602081019050919050565b82818337600083830152505050565b6000612208612203846121b5565b61219a565b90508281526020810184848401111561222457612223612135565b5b61222f8482856121e6565b509392505050565b600082601f83011261224c5761224b612130565b5b813561225c8482602086016121f5565b91505092915050565b61226e81611f22565b811461227957600080fd5b50565b60008135905061228b81612265565b92915050565b600080600080608085870312156122ab576122aa6120fa565b5b60006122b98782880161211b565b945050602085013567ffffffffffffffff8111156122da576122d96120ff565b5b6122e687828801612237565b93505060406122f78782880161227c565b92505060606123088782880161211b565b91505092959194509250565b60006020828403121561232a576123296120fa565b5b60006123388482850161211b565b91505092915050565b61234a81611e59565b82525050565b600082825260208201905092915050565b600061236c82611e72565b6123768185612350565b9350612386818560208601611e8e565b61238f81611eb8565b840191505092915050565b6123a381611f22565b82525050565b6123b281611f43565b82525050565b6000610120820190506123ce600083018c612341565b81810360208301526123e0818b612361565b905081810360408301526123f4818a612361565b90506124036060830189612341565b6124106080830188612341565b81810360a08301526124228187612361565b905061243160c083018661239a565b61243e60e08301856123a9565b8181036101008301526124518184612361565b90509a9950505050505050505050565b600080600080600060a0868803121561247d5761247c6120fa565b5b600086013567ffffffffffffffff81111561249b5761249a6120ff565b5b6124a788828901612237565b955050602086013567ffffffffffffffff8111156124c8576124c76120ff565b5b6124d488828901612237565b94505060406124e58882890161211b565b93505060606124f68882890161211b565b925050608086013567ffffffffffffffff811115612517576125166120ff565b5b61252388828901612237565b9150509295509295909350565b6000610120830160008301516125496000860182611e63565b50602083015184820360208601526125618282611ec9565b9150506040830151848203604086015261257b8282611ec9565b91505060608301516125906060860182611e63565b5060808301516125a36080860182611e63565b5060a083015184820360a08601526125bb8282611ec9565b91505060c08301516125d060c0860182611f34565b5060e08301516125e360e0860182611f4f565b506101008301518482036101008601526125fd8282611ec9565b9150508091505092915050565b600060208201905081810360008301526126248184612530565b905092915050565b600060208284031215612642576126416120fa565b5b600082013567ffffffffffffffff8111156126605761265f6120ff565b5b61266c84828501612237565b91505092915050565b7f4e487b7100000000000000000000000000000000000000000000000000000000600052603260045260246000fd5b7f4e487b7100000000000000000000000000000000000000000000000000000000600052602260045260246000fd5b600060028204905060018216806126eb57607f821691505b6020821081036126fe576126fd6126a4565b5b50919050565b7f506c6f7420646f6573206e6f7420657869737400000000000000000000000000600082015250565b600061273a601383612350565b915061274582612704565b602082019050919050565b600060208201905081810360008301526127698161272d565b9050919050565b7f506c6f7420616c726561647920736f6c64000000000000000000000000000000600082015250565b60006127a6601183612350565b91506127b182612770565b602082019050919050565b600060208201905081810360008301526127d581612799565b9050919050565b7f496e636f7272656374207061796d656e7420616d6f756e743b2073656e64207460008201527f686520657861637420707269636520696e207765690000000000000000000000602082015250565b6000612838603583612350565b9150612843826127dc565b604082019050919050565b600060208201905081810360008301526128678161282b565b9050919050565b7f496e76616c6964206f776e657220616464726573730000000000000000000000600082015250565b60006128a4601583612350565b91506128af8261286e565b602082019050919050565b600060208201905081810360008301526128d381612897565b9050919050565b60008190508160005260206000209050919050565b60006020601f8301049050919050565b600082821b905092915050565b60006008830261293c7fffffffffffffffffffffffffffffffffffffffffffffffffffffffffffffffff826128ff565b61294686836128ff565b95508019841693508086168417925050509392505050565b6000819050919050565b600061298361297e61297984611e59565b61295e565b611e59565b9050919050565b6000819050919050565b61299d83612968565b6129b16129a98261298a565b84845461290c565b825550505050565b600090565b6129c66129b9565b6129d1818484612994565b505050565b5b818110156129f5576129ea6000826129be565b6001810190506129d7565b5050565b601f821115612a3a57612a0b816128da565b612a14846128ef565b81016020851015612a23578190505b612a37612a2f856128ef565b8301826129d6565b50505b505050565b600082821c905092915050565b6000612a5d60001984600802612a3f565b1980831691505092915050565b6000612a768383612a4c565b9150826002028217905092915050565b612a8f82611e72565b67ffffffffffffffff811115612aa857612aa761213a565b5b612ab282546126d3565b612abd8282856129f9565b600060209050601f831160018114612af05760008415612ade578287015190505b612ae88582612a6a565b865550612b50565b601f198416612afe866128da565b60005b82811015612b2657848901518255600182019150602085019450602081019050612b01565b86831015612b435784890151612b3f601f891682612a4c565b8355505b6001600288020188555050505b505050505050565b6000606082019050612b6d6000830186612341565b612b7a6020830185612341565b8181036040830152612b8c8184612361565b9050949350505050565b7f4c6f636174696f6e206973207265717569726564000000000000000000000000600082015250565b6000612bcc601483612350565b9150612bd782612b96565b602082019050919050565b60006020820190508181036000830152612bfb81612bbf565b9050919050565b7f53697a65206d7573742062652067726561746572207468616e207a65726f0000600082015250565b6000612c38601e83612350565b9150612c4382612c02565b602082019050919050565b60006020820190508181036000830152612c6781612c2b565b9050919050565b7f5072696365206d7573742062652067726561746572207468616e207a65726f00600082015250565b6000612ca4601f83612350565b9150612caf82612c6e565b602082019050919050565b60006020820190508181036000830152612cd381612c97565b9050919050565b7f496d6167652055524c2069732072657175697265640000000000000000000000600082015250565b6000612d10601583612350565b9150612d1b82612cda565b602082019050919050565b60006020820190508181036000830152612d3f81612d03565b9050919050565b7f4e487b7100000000000000000000000000000000000000000000000000000000600052601160045260246000fd5b6000612d8082611e59565b91507fffffffffffffffffffffffffffffffffffffffffffffffffffffffffffffffff8203612db257612db1612d46565b5b600182019050919050565b600081905092915050565b6000612dd382611e72565b612ddd8185612dbd565b9350612ded818560208601611e8e565b80840191505092915050565b6000612e058284612dc8565b915081905092915050565b600060c082019050612e256000830189612341565b8181036020830152612e378188612361565b90508181036040830152612e4b8187612361565b9050612e5a6060830186612341565b612e676080830185612341565b81810360a0830152612e798184612361565b9050979650505050505050565b6000612e9182611e59565b9150612e9c83611e59565b9250828203905081811115612eb457612eb3612d46565b5b9291505056fea26469706673582212204a6144b215aca6853bf119234ffa367c836fdb63560ee66472b73671ce114acd64736f6c634300081c0033",
  "linkReferences": {},
  "deployedLinkReferences": {}
}